:100000000C9434000C9446000C9446000C9446006A
:100010000C9446000C94CF000C9446000C944600BF
:100020000C9446000C9446000C9446000C94460038
:100030000C9446000C9446000C94C3000C944600AB
:100040000C9446000C9446000C9446000C94460018
:100050000C9446000C9446000C9446000C94460008
:100060000C9446000C94460011241FBECFEFD8E03C
:10007000DEBFCDBF21E0A0E0B1E001C01D92A336FC
:10008000B207E1F70E94C3010C94AD040C94000088
:1000900089B18170089588274999839508958827A3
:1000A000359983950895289A0895439A0895449A16
:1000B0000895289808954398089544980895EDE682
:1000C000F0E080818B7F80830895EDE6F0E0808111
:1000D000877F80830895EDE6F0E080818F7E8083C6
:1000E0000895EDE6F0E08081846080830895EDE678
:1000F000F0E08081886080830895EDE6F0E0808103
:1001000080618083089580916D008470089580914E
:100110006D008870089580916D0080710895CF936F
:10012000DF9325E1289FE001299FD00D1124C050C5
:10013000DF4F1882EF81F8850995ED85FE850995D9
:1001400041985F9A429ADF91CF910895CF93DF93C0
:10015000C82FD92F85E18C9FF0018D9FF00D1124C0
:10016000E050FF4F81E080830580F681E02D099506
:10017000FE01EE0FFF1FEC0FFD1FE15CFE4F108232
:10018000DF91CF9108958F938FB78F9380914A011C
:10019000816080934A018F918FBF8F9118952F9323
:1001A0002FB72F933F938F939F93EF93FF9399B123
:1001B00080916D0082FF0DC080914801892782FFE8
:1001C00008C0E0E0F1E0238134812F5F3F4F3483AA
:1001D000238380916D0083FF0DC0809148018927A2
:1001E00083FF08C0E0E0F1E0208D318D2F5F3F4FAD
:1001F000318F208F80916D0084FF0DC08091480168
:10020000892784FF08C0E0E0F1E025A536A52F5F2F
:100210003F4F36A725A788B122E0822788B990935F
:100220004801FF91EF919F918F913F912F912FBFA7
:100230002F911895FF920F931F93CF93DF93CDB714
:10024000DEB728970FB6F894DEBF0FBECDBF0FE321
:1002500011E018861F820F2EF5E1FF2EF02D50C001
:100260008091490180FF41C0AB81BC8111968D9185
:100270009D9101969E938E93863A9105B0F125E16A
:10028000E981FA812E9FC0012F9F900D11249C01BE
:1002900020503F4F3E832D83D9011796ED91FD915C
:1002A0000995ED81FE8183819481409708F452C0C5
:1002B00085E129813A81829FF001839FF00D11240D
:1002C000E050FF4F82E0818385E1A981BA818A9F56
:1002D000F0018B9FF00D1124E050FF4F81E08283ED
:1002E00014821382EB81FC8110822F8138852F5F6D
:1002F0003F4F38872F830D5F1F4F23303105B9F1F2
:100300002F8138853A832983F29EF001F39EF00D08
:100310001124E050FF4F0184F285E02D09958115ED
:1003200021F31C830B83D8018C91811199CF1196F5
:100330001D921D92139781E08C9385E12F81388562
:10034000829FF001839FF00D1124E050FF4F148233
:100350001382CBCF85E149815A81849FF001859F2B
:10036000F00D1124E050FF4F81E08183ADCF28963E
:100370000FB6F894DEBF0FBECDBFDF91CF911F91B6
:100380000F91FF9008952FEF30E782E02150304029
:100390008040E1F700C000001BB818B815B8209ADB
:1003A000219A0E94B503279A389A399A3A9A3B9A29
:1003B0003C9A3D98509851985A9A52985B9A539803
:1003C0005C9A5498569A579A16BC82E084BD83E092
:1003D00085BD8CE787BDEEE6F0E08081826080839A
:1003E000E0E0F1E081E790E09683858387E790E0A5
:1003F000938F828F8DE790E090AB87A78FE590E099
:100400009087878385E690E0958F848F8BE690E0D8
:1004100092AB81AB83E890E09287818787E890E098
:10042000978F868F8BE890E094AB83AB83E590E069
:100430009487838785E590E091A380A387E590E08A
:1004400096AB85AB89E590E0968785878BE590E054
:1004500093A382A38DE590E090AF87AB88E490E012
:10046000938B828B8BE490E090A787A38FE490E03E
:1004700095AF84AF89B180934801E8E6F0E08081D0
:1004800084608083789400E00F2EFCE4AF2EF1E0CE
:10049000BF2EF02D0F2EF0E56F2EF1E07F2EF02D08
:1004A0000F2EF4E54F2EF1E05F2EF02D0F2EF8E524
:1004B0002F2EF1E03F2EF02D15E124C10E940B04F8
:1004C000D5018C9183FF02C0877F8C93F3018081DB
:1004D00083FF04C0877F808381FF2998D2018C919C
:1004E00083FF04C0877F8C9381FF2F9AF101808165
:1004F00083FF04C0877F808381FF299AACE5B1E048
:100500008C9183FF04C0877F8C9381FD20C0E0E63F
:10051000F1E0808100E083FF0BC1877F808381FF52
:100520002BC0C0E0D0E01C9FF0011D9FF00D1124F6
:10053000EC5EFE4F808182608083CE010E948F003E
:100540002196C330D10579F7409800E0F1C0C0E0B2
:10055000D0E01C9FF0011D9FF00D1124E050FF4FD3
:100560008081811529F02196C330D10591F7CFCF35
:10057000CE010E94A600F7CFA4E1B1E08C918D7F5F
:100580008C93E9E2F1E080818D7F8083AEE3B1E07E
:100590008C918D7F8C93409A00E0CAC01C9FF00123
:1005A0001D9FF00D1124EC5EFE4F808181608083E1
:1005B000CE010E948F0029982196C330D10509F4FD
:1005C0009CC07E011C9FF0011D9FF00D1124E05086
:1005D000FF4F8081811581F31C9FF0011D9FF00D5D
:1005E0001124E050FF4F0288F389E02D0995811511
:1005F000A9F21C9FF0011D9FF00D1124E050FF4F48
:1006000082818115B9F01C9FF0011D9FF00D11240E
:10061000E050FF4F12828181823009F444C01C9F58
:10062000F0011D9FF00D1124E050FF4F81818130BA
:1006300009F456C01E9DF0011F9DF00D1124EF5EC0
:10064000FE4F808180FFB8CF8091490180FFB4CFF9
:100650001E9DF0011F9DF00D1124E050FF4F878576
:1006600090890196908B87878A3F910508F4A4CFE3
:100670001E9D60011F9DD00C1124F601E050FF4F1C
:100680007F01108A17860584F685E02D0995F6010D
:10069000EF5EFE4F80818E7F8083D7011596ED91AE
:1006A000FD91099589CF1C9F40011D9F900C11243D
:1006B000F401E050FF4F6F010384F485E02D0995AC
:1006C0002998D6011796ED91FD910995F401EF5EF9
:1006D000FE4F808181608083F601108A1786AACF41
:1006E0006F01DF011D96ED91FD9109954198D601AD
:1006F0001596ED91FD9109959DCF809149018E7FD1
:100700008093490180914A0180FF0AC080914A018B
:100710008E7F80934A0180914901816080934901D5
:100720008091490180FF04C00F5F04310CF0C6CEF8
:100730000E941A01C0E0D0E044CF88271A9983951F
:10074000089588271B998395089588271C99839578
:10075000089588271D998395089588274D99839535
:10076000089588271E99839508950F931F93CF931B
:10077000DF932A9A2B9A2C9A2D9A2E9A8FEC97E037
:100780000197F1F700C000002298EBE4F1E08DE959
:1007900093E093838283239881EA93E0978386830F
:1007A000249885EA93E093878287259889EA93E0E5
:1007B0009787868755988DEA93E0938B828B26984E
:1007C00081EB93E0978B868BAFECB7E01197F1F755
:1007D00000C000008F01C0E0D0E0D8011296ED917A
:1007E000FD910995FE01EE0FFF1FEE0FFF1FE45B69
:1007F000FE4F908180FB91F980FB92F99860908385
:1008000021960C5F1F4FC630D10539F7DF91CF918C
:100810001F910F910895CF92DF92EF92FF920F9365
:100820001F93CF93DF9300D000D0CDB7DEB70BE49A
:1008300011E01C821B8214C0F801808191E0980FA6
:10084000811509F43FC090832B813C812F5F3F4F7E
:100850003C832B830C5F1F4F2630310509F470C099
:10086000CB80DC80F601EE0FFF1FEE0FFF1FE45B75
:10087000FE4F808180FDE0CFD8011296ED91FD9171
:100880000995EB81FC81EE0FFF1FEE0FFF1FE45B6C
:10089000FE4F908192FBEE24E0F8F12C082E001C14
:1008A00000088E150F0481F2EB81FC81EE0FFF1F13
:1008B000EE0FFF1FE45BFE4F80FB92F9892F8160F2
:1008C0008083C2CFD8011296ED91FD910995F60172
:1008D000EE0FFF1FEE0FFF1FE45BFE4F908192FBB8
:1008E000992790F999831A82E981FA81082E001CD0
:1008F00000088E170F06B1F0F601EE0FFF1FEE0F86
:10090000FF1FE45BFE4F908180FB92F99083F6011C
:10091000EE0FFF1FEE0FFF1FE45BFE4F80818E7F07
:10092000808392CFF601EE0FFF1FEE0FFF1FE45BF7
:10093000FE4F908180FB91F9892F88608083E7CFFB
:100940000F900F900F900F90DF91CF911F910F910B
:0E095000FF90EF90DF90CF900895F894FFCFC6
:00000001FF
