:100000000C9434000C9446000C9446000C9446006A
:100010000C9446000C94E7010C9446000C944600A6
:100020000C9446000C9446000C9446000C94460038
:100030000C9446000C9446000C94DB010C94460092
:100040000C9446000C9446000C9446000C94460018
:100050000C9446000C9446000C9446000C94460008
:100060000C9446000C94460011241FBECFEFD8E03C
:10007000DEBFCDBF21E0A0E0B1E001C01D92A333FF
:10008000B207E1F70E9483000C9421020C94000057
:1000900089B18170089588274999839508958827A3
:1000A000359983950895289A0895439A0895449A16
:1000B0000895289808954398089544980895EDE682
:1000C000F0E080818B7F80830895EDE6F0E0808111
:1000D000877F80830895EDE6F0E080818F7E8083C6
:1000E0000895EDE6F0E08081846080830895EDE678
:1000F000F0E08081886080830895EDE6F0E0808103
:10010000806180830895209A219A279A389A399A93
:100110003A9A3B9A3C9A3D98509851985A9A5298DC
:100120005B9A53985C9A54985598569A579A16BC6D
:1001300082E084BD83E085BD8CE787BDEEE6F0E01C
:100140008081826080837894C0E0D0E0FE01E295F7
:10015000F295F07FFE27E07FFE27EF5FFE4F0280E3
:10016000F381E02D09952196C330D10579F7E1E0BF
:10017000F1E081E790E09383828387E790E0938BBF
:10018000828B8DE790E093A382A38FE590E0958327
:10019000848385E690E0958B848B8BE690E095A335
:1001A00084A383E590E09783868385E590E0978B31
:1001B000868B87E590E097A386A389E590E09187F9
:1001C00080878BE590E0918F808F8DE590E091A7FF
:1001D00080A788E490E0968785878BE490E0968FEF
:1001E000858F8FE490E096A785A7CDC02196C33078
:1001F000D10531F1FE01E295F295F07FFE27E07F17
:10020000FE27EF5FFE4F0584F685E02D09958111ED
:10021000EDCFCE0182959295907F9827807F982789
:10022000FC01E05FFE4F2081216020838F5F9E4FA5
:10023000DC0118968D919D9129985F9A429AD6CFAC
:10024000C0E0D0E02DC07E01EE0CFF1CEE0CFF1CC8
:10025000EE0CFF1CEE0CFF1CF701EF5FFE4F6F0171
:100260000680F781E02D0995D6011496ED91FD9158
:100270000995F60113861286F701E35FFE4F808130
:100280008160808302951295107F1027007F1027D0
:10029000F801EF5FFE4F10822196C330D105A1F126
:1002A0008E01FE01E295F295F07FFE27E07FFE27AA
:1002B000EF5FFE4F8081811579F3FE01E295F295A3
:1002C000F07FFE27E07FFE27EF5FFE4F80818230C8
:1002D00009F4B9CFFE01E295F295F07FFE27E07FA9
:1002E000FE27EF5FFE4F8081813061F6FE01E295CF
:1002F000F295F07FFE27E07FFE27EF5FFE4F008440
:10030000F185E02D0995BECFC0E0D0E004C0219674
:10031000C330D10599F1FE01E295F295F07FFE27F9
:10032000E07FFE27E35FFE4F808180FFF0CFFE017C
:10033000E295F295F07FFE27E07FFE27EF5FFE4F0C
:1003400082859385873A910510F38E010295129567
:10035000107F1027007F10277F01DF011296ED919B
:10036000FD910995D7011896ED91FD910995F80138
:10037000E35FFE4F80818E7F8083C9CF8091310102
:100380008E7F809331018091320180FF0AC080917D
:1003900032018E7F809332018091310181608093A0
:1003A000310183B11B9929981C9B2F9A1D9B299A77
:1003B000C0E0D0E01FCF8F938FB78F938091320131
:1003C0008160809332018F918FBF8F9118958F93A9
:1003D0008FB78F939F93EF93FF9389B190916D00A7
:1003E00092FF0AC090910001982792FF05C0E1E0BA
:1003F000F1E091819F5F918390916D0093FF0AC01E
:1004000090910001982793FF05C0E1E0F1E0918908
:100410009F5F918B90916D0094FF0AC090910001B5
:10042000982794FF05C0E1E0F1E091A19F5F91A3BF
:1004300080930001FF91EF919F918F918FBF8F91DA
:060440001895F894FFCFAF
:00000001FF
