:100000000C9434000C9446000C9446000C9446006A
:100010000C9446000C949B000C9446000C944600F3
:100020000C9446000C9446000C9446000C94460038
:100030000C9446000C9446000C948F000C944600DF
:100040000C9446000C9446000C9446000C94460018
:100050000C9446000C9446000C9446000C94460008
:100060000C9446000C94460011241FBECFEFD8E03C
:10007000DEBFCDBF21E0A0E0B1E001C01D92A935F7
:10008000B207E1F70E948D010C9430030C9400003C
:1000900089B18170089588274999839508958827A3
:1000A000359983950895289A0895439A0895449A16
:1000B0000895289808954398089544980895EDE682
:1000C000F0E080818B7F80830895EDE6F0E0808111
:1000D000877F80830895EDE6F0E080818F7E8083C6
:1000E0000895EDE6F0E08081846080830895EDE678
:1000F000F0E08081886080830895EDE6F0E0808103
:1001000080618083089580916D008470089580914E
:100110006D008870089580916D00807108958F93AF
:100120008FB78F93809144018160809344018F91B8
:100130008FBF8F9118952F932FB72F933F938F9346
:100140009F93EF93FF9389B190916D0092FF0DC043
:1001500090914201982792FF08C0E0E0F1E02181F0
:1001600032812F5F3F4F3283218390916D0093FF47
:1001700011C090914201982793FF0CC0E0E0F1E09C
:10018000248935892F5F3F4F358B248B98B122E02E
:10019000922798B990916D0094FF0DC09091420103
:1001A000982794FF08C0E0E0F1E027A130A52F5F79
:1001B0003F4F30A727A380934201FF91EF919F917A
:1001C0008F913F912F912FBF2F911895FF920F93F1
:1001D0001F93CF93DF93CDB7DEB728970FB6F89470
:1001E000DEBF0FBECDBF09E311E018861F820F2EC0
:1001F000F3E1FF2EF02D4EC08091430180FF3FC000
:10020000AB81BC8111968D919D9101969E938E93A9
:10021000863A9105A0F123E1E981FA812E9FC00180
:100220002F9F900D11249C0120503F4F3E832D8322
:10023000D9011596ED91FD910995ED81FE818181A0
:100240009281409708F450C083E129813A81829FCE
:10025000F001839FF00D1124E050FF4F82E0808376
:1002600083E1A981BA818A9FF0018B9FF00D11244F
:10027000E050FF4F12821182EB81FC8110822F81AE
:1002800038852F5F3F4F38872F830D5F1F4F2330F7
:100290003105B9F12F8138853A832983F29EF00127
:1002A000F39EF00D1124E050FF4F0780F085E02D04
:1002B0000995811521F31C830B83D8018C91811141
:1002C0009BCF11961D921D92139781E08C9383E131
:1002D0002F813885829FF001839FF00D1124E0501B
:1002E000FF4F12821182CBCF83E149815A81849FD3
:1002F000F001859FF00D1124E050FF4F81E08083D5
:10030000AFCF28960FB6F894DEBF0FBECDBFDF91FA
:10031000CF911F910F91FF9008951BB818B815B891
:10032000209A219A0E94E002279A389A399A3A9A9A
:100330003B9A3C9A3D98509851985A9A52985B9A99
:1003400053985C9A54985598569A579A16BC82E0DE
:1003500084BD83E085BD8CE787BDEEE6F0E080815B
:1003600082608083E0E0F1E081E790E09483838322
:1003700087E790E0978B868B8DE790E092A781A727
:100380008FE590E09683858385E690E0918F808F5E
:100390008BE690E094A783A783E890E0908787831B
:1003A00087E890E0938F828F8BE890E096A785A7EF
:1003B00083E590E09287818785E590E0958F848F33
:1003C00087E590E090AB87A789E590E094878387E5
:1003D0008BE590E0978F868F8DE590E092AB81ABB7
:1003E00088E490E0918B808B8BE490E094A383A3CE
:1003F0008FE490E097AB86ABE12CF12C13E11E9DCE
:10040000E0011F9DD00D1124C050DF4FEB81FC8116
:100410000995EB85FC8509952FEFE21AF20A33E086
:10042000E316F10461F789B180934201E8E6F0E058
:10043000808184608083789413E194C01C9F600164
:100440001D9FD00C11245F01DF011996ED91FD91E4
:100450000995D5011596ED91FD910995F601E15F9C
:10046000FE4F808181608083F501168615861E9D72
:10047000F0011F9DF00D1124E050FF4F10822196D6
:10048000C330D10559F17E011C9FF0011D9FF00D75
:100490001124E050FF4F8081811589F31C9FF001EA
:1004A0001D9FF00D1124E050FF4F8081823031F20A
:1004B0001C9FF0011D9FF00D1124E050FF4F808123
:1004C0008130A9F66F01DF011B96ED91FD91099531
:1004D000D6011396ED91FD910995C9CFC0E0D0E00A
:1004E00004C02196C330D105C1F11C9FF0011D9FAE
:1004F000F00D1124E15FFE4F808180FFF2CF8091EB
:10050000430180FFEECF1C9FF0011D9FF00D1124D1
:10051000E050FF4F85859685019696878587843CB8
:100520009940F8F21C9F70011D9FF00C1124F701F7
:10053000E050FF4F6F01168615860384F485E02D89
:100540000995F701E15FFE4F80818E7F8083D601A0
:100550001396ED91FD910995C4CF809143018E7F53
:10056000809343018091440180FF0AC0809144013F
:100570008E7F809344018091430181608093430189
:100580000E94E60083B11B9929981C9B2F9A1D9B02
:10059000299AC0E0D0E077CF88271A9983950895EB
:1005A00088271B998395089588271C99839508951A
:1005B00088271D998395089588271E998395089506
:1005C0000F931F93CF93DF932A9A2B9A2C9A2D9AED
:1005D0002E9A8FEC97E00197F1F700C00000229867
:1005E000E5E4F1E08CEC92E093838283239880ED44
:1005F00092E097838683249884ED92E093878287A4
:10060000259888ED92E09787868726988CED92E072
:10061000938B828BAFECB7E01197F1F700C000002D
:100620008F01C0E0D0E0D8011296ED91FD910995BF
:10063000FE01EE0FFF1FEE0FFF1FEA5BFE4F9081E2
:1006400080FB91F980FB92F9908321960C5F1F4FFC
:10065000C530D10541F7DF91CF911F910F910895DA
:04066000F894FFCF3C
:00000001FF
