:100000000C9434000C9446000C9446000C9446006A
:100010000C9446000C949B000C9446000C944600F3
:100020000C9446000C9446000C9446000C94460038
:100030000C9446000C9446000C948F000C944600DF
:100040000C9446000C9446000C9446000C94460018
:100050000C9446000C9446000C9446000C94460008
:100060000C9446000C94460011241FBECFEFD8E03C
:10007000DEBFCDBF21E0A0E0B1E001C01D92A234FF
:10008000B207E1F70E948F010C9440030C9400002A
:1000900089B18170089588274999839508958827A3
:1000A000359983950895289A0895439A0895449A16
:1000B0000895289808954398089544980895EDE682
:1000C000F0E080818B7F80830895EDE6F0E0808111
:1000D000877F80830895EDE6F0E080818F7E8083C6
:1000E0000895EDE6F0E08081846080830895EDE678
:1000F000F0E08081886080830895EDE6F0E0808103
:1001000080618083089580916D008470089580914E
:100110006D008870089580916D00807108958F93AF
:100120008FB78F93809141018160809341018F91BE
:100130008FBF8F9118958F938FB78F939F93EF9366
:10014000FF9389B190916D0092FF0AC090910001D8
:10015000982792FF05C0E1E0F1E091819F5F9183D4
:1001600090916D0093FF0AC090910001982793FF32
:1001700005C0E1E0F1E093899F5F938B90916D0062
:1001800094FF0AC090910001982794FF05C0E1E018
:10019000F1E095A19F5F95A380930001FF91EF91FE
:1001A0009F918F918FBF8F9118950F931F93CF932E
:1001B000DF93CDB7DEB728970FB6F894DEBF0FBE3A
:1001C000CDBF07E311E018861F824AC0809140012D
:1001D00080FF3CC0EB81FC818181928101969283FA
:1001E0008183863A910590F189819A81880F991FC0
:1001F000880F991F880F991F29813A81820F931FB9
:10020000880F991FDC01AF5FBE4FBE83AD8314968C
:10021000ED91FD910995ED81FE818181803108F498
:1002200060C0E981FA81EE0FFF1FEE0FFF1FEE0F96
:10023000FF1F29813A81E20FF31FEE0FFF1FEF5FCF
:10024000FE4F82E08083AB81BC811C92EF81F885F8
:100250003196F887EF830D5F1F4F339709F454C031
:100260002F8138853A832983F901EE0FFF1FEE0FA6
:10027000FF1FEE0FFF1FE20FF31FEE0FFF1FEF5FD9
:10028000FE4F0680F781E02D09958115F9F21C8358
:100290000B83D8018C91811199CF11961D921D92DB
:1002A000139781E08C938F819885880F991F880F11
:1002B000991F880F991FEF81F885E80FF91FEE0F3E
:1002C000FF1FEF5FFE4F1182EF81F885E80FF91FE6
:1002D000EE0FFF1FEF5FFE4F0280F381E02D0995C7
:1002E000B5CFE981FA81EE0FFF1FEE0FFF1FEE0F72
:1002F000FF1F89819A81E80FF91FEE0FFF1FEF5F43
:10030000FE4F81E080839FCF28960FB6F894DEBF22
:100310000FBECDBFDF91CF911F910F910895209A0D
:10032000219A279A389A399A3A9A3B9A3C9A3D9858
:10033000509851985A9A52985B9A53985C9A54984C
:100340005598569A579A16BC82E084BD83E085BDC5
:100350008CE787BDEEE6F0E0808182608083E1E09B
:10036000F1E081E790E09383828387E790E0958BCB
:10037000848B8DE790E097A386A38FE590E095832B
:10038000848385E690E0978B868B8BE690E091A73F
:1003900080A783E890E09783868387E890E0918F39
:1003A000808F8BE890E093A782A783E590E0918708
:1003B000808785E590E0938F828F87E590E095A711
:1003C00084A789E590E0938782878BE590E0958FFD
:1003D000848F8DE590E097A786A788E490E0908BC6
:1003E00087878BE490E092A381A38FE490E094ABA5
:1003F00083ABC0E0D0E0FE01EE0FFF1FEE0FFF1F4A
:10040000EE0FFF1FEC0FFD1FEE0FFF1FEF5FFE4F04
:100410000280F381E02D09952196C330D10559F76B
:10042000E8E6F0E080818460808378940FC12196B3
:10043000C330D10599F1FE01EE0FFF1FEE0FFF1F34
:10044000EE0FFF1FEC0FFD1FEE0FFF1FEF5FFE4FC4
:100450000784F089E02D09958111E9CFCE01880F3D
:10046000991F880F991F880F991FFC01EC0FFD1F22
:10047000EE0FFF1FEE5EFE4F208121602083FC0106
:10048000EC0FFD1FEE0FFF1FEF5FFE4F0284F385A1
:10049000E02D099529985F9A429AC9CFC0E0D0E033
:1004A00032C07E01EE0CFF1CEE0CFF1CEE0CFF1C9C
:1004B0006F01DF011896ED91FD910995D601149613
:1004C000ED91FD910995F701EC0FFD1FEE0FFF1F58
:1004D000E15FFE4F808181608083F601158614867E
:1004E000F801EE0FFF1FEE0FFF1FEE0FFF1FE00FD3
:1004F000F11FEE0FFF1FEF5FFE4F10822196C330FA
:10050000D10509F445C08E01FE01EE0FFF1FEE0F6D
:10051000FF1FEE0FFF1FEC0FFD1FEE0FFF1FEF5F22
:10052000FE4F8081811551F3FE01EE0FFF1FEE0F8C
:10053000FF1FEE0FFF1FEC0FFD1FEE0FFF1FEF5F02
:10054000FE4F8081823009F4ACCFFE01EE0FFF1F19
:10055000EE0FFF1FEE0FFF1FEC0FFD1FEE0FFF1F33
:10056000EF5FFE4F8081813009F0BACFFE01EE0FC0
:10057000FF1FEE0FFF1FEE0FFF1FEC0FFD1FEE0F13
:10058000FF1FEF5FFE4F0284F385E02D0995A8CF92
:10059000C0E0D0E005C02196C330D10509F451C0B8
:1005A000FE01EE0FFF1FEE0FFF1FEE0FFF1FEC0F00
:1005B000FD1FEE0FFF1FE15FFE4F808180FFEBCF3D
:1005C0008091400180FFE7CFFE01EE0FFF1FEE0F8D
:1005D000FF1FEE0FFF1FEC0FFD1FEE0FFF1FEF5F62
:1005E000FE4F84859585019695878487863A910587
:1005F00090F28E01000F111F000F111F000F111F2D
:10060000F801EC0FFD1FEE0FFF1FEF5FFE4F02849E
:10061000F385E02D0995F801EC0FFD1FEE0FFF1F8C
:10062000E15FFE4F80818E7F8083F801EC0FFD1F1C
:10063000EE0FFF1FEF5FFE4F0280F381E02D099563
:10064000AACF809140018E7F80934001809141012B
:1006500080FF0AC0809141018E7F8093410180918B
:1006600040018160809340010E94D50083B11B99B5
:1006700029981C9B2F9A1D9B299AC0E0D0E0DBCEC5
:04068000F894FFCF1C
:00000001FF
