:100000000C9434000C9446000C9446000C9446006A
:100010000C9446000C94CD010C9446000C944600C0
:100020000C9446000C9446000C9446000C94460038
:100030000C9446000C9446000C94C1010C944600AC
:100040000C9446000C9446000C9446000C94460018
:100050000C9446000C9446000C9446000C94460008
:100060000C9446000C94460011241FBECFEFD8E03C
:10007000DEBFCDBF21E0A0E0B1E001C01D92AA36F5
:10008000B207E1F70E949B020C94B9050C940000A2
:1000900088271A998395089588271B998395089531
:1000A00088271C998395089588271D99839508951D
:1000B00088274D998395089588271E9983950895DB
:1000C0000F931F93CF93DF932A9A2B9A2C9A2D9AF2
:1000D0002E9A8FEC97E00197F1F700C0000022986C
:1000E000E0E0F1E088E490E09383828323988CE45D
:1000F00090E097838683249880E590E093878287B9
:10010000259884E590E097878687559888E590E064
:10011000938B828B26988CE590E0978B868B8FEC67
:1001200097E00197F1F700C000008F01C0E0D0E038
:10013000F8010280F381E02D0995FE01EE0FFF1F0B
:10014000EE0FFF1FEF5FFE4F908180FB91F980FB68
:1001500092F99860908321960C5F1F4FC630D105AD
:1001600039F7DF91CF911F910F910895AF92BF9210
:10017000CF92DF92EF92FF920F931F93CF93DF9373
:1001800000E011E0C0E0D0E00EC0F8018081982FBF
:100190009F5F8030B1F1908321960C5F1F4FC63076
:1001A000D10509F469C06E01FE01EE0FFF1FEE0FCD
:1001B000FF1FEF5FFE4F808180FDE7CFF8010280D7
:1001C000F381E02D0995FE01EE0FFF1FEE0FFF1FDB
:1001D000EF5FFE4F908192FBEE24E0F8F12C082EA9
:1001E000001C00088E150F04B9F2FE01EE0FFF1F70
:1001F000EE0FFF1FEF5FFE4F80FB92F9916090833F
:10020000CBCF0280F381E02D0995FE01EE0FFF1F99
:10021000EE0FFF1FEF5FFE4F908192FB992790F941
:10022000A92EB12C9501082E001C00088217030688
:10023000B1F0FE01EE0FFF1FEE0FFF1FEF5FFE4F4D
:10024000908180FB92F99083F601EE0FFF1FEE0F75
:10025000FF1FEF5FFE4F80818E7F80839DCFFE0169
:10026000EE0FFF1FEE0FFF1FEF5FFE4F908180FB31
:1002700091F998609083E8CFDF91CF911F910F9112
:10028000FF90EF90DF90CF90BF90AF90089589B12D
:10029000817008958827499983950895882735990D
:1002A00083950895289A0895439A0895449A089545
:1002B000289808954398089544980895EDE6F0E04D
:1002C00080818B7F80830895EDE6F0E08081877FD9
:1002D00080830895EDE6F0E080818F7E808308952D
:1002E000EDE6F0E08081846080830895EDE6F0E043
:1002F0008081886080830895EDE6F0E080818061F0
:100300008083089580916D008470089580916D00C0
:100310008870089580916D0080710895CF93DF9368
:1003200024E1289FE001299FD00D1124CE5DDE4FEE
:100330001882EE81FF810995EC85FD85099541982C
:100340005F9A429ADF91CF910895CF93DF93EC01AA
:1003500084E18C9FF0018D9FF00D1124EE5DFE4F26
:1003600081E080830480F581E02D0995FE01EE0F88
:10037000FF1FEC0FFD1FE25AFE4F1082DF91CF915D
:1003800008958F938FB78F938091690181608093D7
:1003900069018F918FBF8F9118958F938FB78F932E
:1003A0009F93EF93FF9389B190916D0092FF0AC0E4
:1003B00090916701982792FF05C0E2E2F1E09381F6
:1003C0009F5F938390916D0093FF0AC090916701A6
:1003D000982793FF05C0E2E2F1E097899F5F978B32
:1003E00090916D0094FF0AC090916701982794FF47
:1003F00005C0E2E2F1E093A59F5F93A780936701B8
:10040000FF91EF919F918F918FBF8F911895AF9230
:10041000BF92CF92DF92FF920F931F93CF93DF9300
:1004200000D000D0CDB7DEB70EE511E01C821B82F4
:100430000F2EF4E1FF2EF02D41C08091680180FF66
:1004400034C081819281019692838183863A904063
:1004500060F124E12C9DC0012D9D900D11248E5D35
:100460009E4F9A838983FC010680F781E02D0995D0
:10047000E981FA8183818F3008F444C084E18C9D46
:10048000F0018D9DF00D1124EE5DFE4F82E0818321
:1004900084E18C9DF0018D9DF00D1124EE5DFE4FE9
:1004A00081E082831382F50110828B819C81019609
:1004B0009C838B830D5F1F4F039779F1CB80DC808A
:1004C000FC9CF001FD9CF00D1124EE5DFE4F0084BC
:1004D000F185E02D0995803041F35801F8018081C4
:1004E0008111ABCF1282118281E0808384E12B8164
:1004F0003C81829FF001839FF00D1124EE5DFE4F41
:100500001382D3CF84E18C9DF0018D9DF00D1124D9
:10051000EE5DFE4F81E08183BBCF0F900F900F9077
:100520000F90DF91CF911F910F91FF90DF90CF90AF
:10053000BF90AF90089500D000D0CDB7DEB78FE761
:100540009AE126E0815090402040E1F700C0000091
:100550001BB818B815B8209A219A0E946000279AF3
:10056000389A399A3A9A3B9A3C9A3D9850985198C1
:100570005A9A52985B9A53985C9A5498569A579AFA
:1005800016BC82E084BD83E085BD8CE787BDEEE6C6
:10059000F0E0808182608083E2E2F1E080E791E038
:1005A0009583848386E791E0918F808F8CE791E03B
:1005B00095A784A78EE591E09783868384E691E0F2
:1005C000938F828F8AE691E097A786A782E891E0D1
:1005D0009187808786E891E0958F848F8AE891E003
:1005E00091AB80AB82E591E09387828784E591E0CF
:1005F000978F868F86E591E093AB82AB88E591E09B
:10060000958784878AE591E091A380A38CE591E0AA
:1006100095AB84AB87E491E0928B818B8AE491E087
:1006200096A385A38EE491E092AF81AF89B18093C8
:100630006701E8E6F0E0808184608083789441E09F
:1006400068E270E088E191E00E943F0562E072E0BC
:1006500088E191E00E944405912C612C712C00E00E
:100660000F2EF5E04F2EF1E05F2EF02D0F2EF9E06A
:100670002F2EF1E03F2EF02D14E10F2EF2E2CF2EBF
:10068000F1E0DF2EF02DF92C1982B7C10E94B600DF
:10069000E1E0F1E0808183FF02C0877F8083F20187
:1006A000808183FF06C0877F808381FF02C02998F5
:1006B0005E98F101808183FF05C0877F808381FD83
:1006C0003AC02F9AEDE0F1E0808183FF0AC0877F76
:1006D000808381FD06C0299A5E98FF24F394612CE3
:1006E000712CE1E1F1E0808183FF04C0877F80838A
:1006F00081FD23C0E5E1F1E0808183FF46C0877F73
:10070000808381FF32C0A12CB12C1A9DF0011B9D6A
:10071000F00D1124EB5CFE4F808182608083C50167
:100720000E948E018FEFA81AB80A83E0A816B104C0
:1007300061F740982AC02F98C5CFA12CB12C1A9DE3
:10074000F0011B9DF00D1124EE5DFE4F8081803085
:1007500041F08FEFA81AB80A83E0A816B10479F720
:10076000C9CFC5010E94A501F4CFE5E3F1E0808186
:100770008D7F8083E9E4F1E080818D7F8083EDE5EA
:10078000F1E080818D7F8083409A0F2DF11409F470
:100790004AC18FEF681A780A00E08AEF6816710480
:1007A00008F441C15E9AF12C612C712C00E03BC130
:1007B000189DF001199DF00D1124EB5CFE4F808116
:1007C00081608083C4010E948E01299837C0189DE2
:1007D000F001199DF00D1124EE5CFE4F808180FD2B
:1007E00064C0189DC001199D900D11249A838983BE
:1007F0008E5D9E4F5C01FC010284F385E02D09951E
:100800002998F5010680F781E02D0995E981FA81A3
:10081000EE5CFE4F808181608083D50150961E92F0
:100820001E9280818D7F80831E9DF0011F9DF00DA3
:100830001124EE5CFE4F808180FD6DC08FEF881A21
:10084000980A83E08816910409F4BFC07401189DCA
:10085000F001199DF00D1124EE5DFE4F8081803076
:1008600069F3189DF001199DF00D1124EE5DFE4F06
:100870000188F289E02D0995803009F499CF189DFF
:10088000F001199DF00D1124EE5DFE4F8281803044
:1008900059F2189DF001199DF00D1124EE5DFE4FE7
:1008A00012828181823009F492CF1E9DF0011F9D3A
:1008B000F00D1124EE5DFE4F81818230B1F01E9D5E
:1008C000F0011F9DF00D1124EE5DFE4F81818130FE
:1008D00009F0AACF5F010484F585E02D0995F501A3
:1008E0000480F581E02D09959FCF1E9DF0011F9D8D
:1008F000F00D1124EE5CFE4F808180FFE0CF1E9D45
:10090000F0011F9DF00D1124EE5DFE4F0480F58176
:10091000E02D099589CF8091680180FF8FCF1E9DC2
:10092000F0011F9DF00D1124EE5CFE4F808181FDD2
:1009300028C01E9DF0011F9DF00D1124EE5DFE4F9D
:10094000868597850196978786878230924008F43E
:1009500075CF1E9D50011F9DB00C11247F0117867D
:1009600016860484F585E02D0995F501EE5CFE4FB1
:10097000808182608083F7010480F581E02D0995F4
:100980005DCF1E9DF0011F9DF00D1124EE5DFE4F09
:10099000868597850196978786878230924008F4EE
:1009A0004DCF1E9DF0011F9DF00D1124DF01AE5DA6
:1009B000BE4F50961E921E92EE5CFE4F80818E7F3F
:1009C000808380818D7F808339CFFB808C81898378
:1009D000811138C0F6018181823069F185898230C8
:1009E00051F181A5823039F188E191E00E945D05E5
:1009F000809168018E7F809368018091690180FFFA
:100A00000AC0809169018E7F80936901809168019D
:100A10008160809368018091680180FF04C00F5F4E
:100A200004310CF033CE0E940702812C912CFB8202
:100A300089818C830BCF88E191E00E94590581E088
:100A40008983D2CF80E090E030E004C0019683300B
:100A5000910561F0189FF001199FF00D1124EE5DD2
:100A6000FE4F2181213091F73F5FF0CF333009F005
:100A7000BBCF88E191E00E9448051982B5CFFC0107
:100A80007087678341870895FC01748363830895A9
:100A9000FC01A781B0858C91918521E030E002C0F6
:100AA000220F331F9A95E2F7209528232C9310826A
:100AB000089523E0FC0120830895CF93DF93EC0198
:100AC00088818130C9F0823051F188818330E1F131
:100AD000843009F04BC08091680180FF47C0898154
:100AE0009A8101969A8389832B813C81821793078F
:100AF000E8F183E088833AC0EF81F88580819985A9
:100B000021E030E002C0220F331F9A95E2F7822BDA
:100B100080831A82198288818F5F8883D6CF8091E3
:100B2000680180FF23C089819A8101962B813C81D5
:100B30008217930718F49A83898318C01A8219823E
:100B4000CE010E944805C1CFEF81F885808199854B
:100B500021E030E002C0220F331F9A95E2F782278E
:100B600080831A82198288818F5F8883DF91CF9179
:060B70000895F894FFCF88
:00000001FF
